:020000040000FA
:060000000A128A11FC2F18
:100E34008316031386018801831603178801890129
:100E4400803083120313860088010630F2001330C9
:100E5400F100AD30F000F00B2D2FF10B2D2FF20B24
:100E64002D2F342F0730F3000030F40003108312C9
:100E74000313860C0630F2001330F100AD30F0009D
:100E8400F00B422FF10B422FF20B422F492FFF3070
:100E9400F3070318F40AFF30F4077408803AFF00DC
:100EA40080307F02031D582F0130730203185B2F1B
:100EB4005C2F382F8312031386018030880006309C
:100EC400F2001330F100AD30F000F00B672FF10B9E
:100ED400672FF20B672F6E2F0730F3000030F400FA
:100EE400031083120313880C0630F2001330F10050
:100EF400AD30F000F00B7C2FF10B7C2FF20B7C2F2C
:100F0400832FFF30F3070318F40AFF30F407740843
:100F1400803AFF0080307F02031D922F013073025C
:100F24000318952F962F722F0730F3000030F4002A
:100F3400031083120313880D0630F2001330F100FE
:100F4400AD30F000F00BA42FF10BA42FF20BA42F63
:100F5400AB2FFF30F3070318F40AFF30F4077408CB
:100F6400803AFF0080307F02031DBA2F01307302E4
:100F74000318BD2FBE2F9A2F83120313880101304B
:100F840086000630F2001330F100AD30F000F00BB3
:100F9400C92FF10BC92FF20BC92FD02F0730F30043
:100FA4000030F400031083120313860D0630F200A0
:100FB4001330F100AD30F000F00BDE2FF10BDE2F1B
:100FC400F20BDE2FE52FFF30F3070318F40AFF308E
:100FD400F4077408803AFF0080307F02031DF42F69
:100FE400013073020318F72FF82FD42F342F0A126D
:0C0FF4008A11002883010A128A111A2FAA
:02400E00F13F80
:00000001FF
